{
  "contractName": "GeoReport",
  "abi": [
    {
      "anonymous": false,
      "inputs": [
        {
          "indexed": true,
          "internalType": "bytes32",
          "name": "geoReportId",
          "type": "bytes32"
        }
      ],
      "name": "GeoReportAdded",
      "type": "event"
    },
    {
      "inputs": [
        {
          "internalType": "bytes32",
          "name": "",
          "type": "bytes32"
        }
      ],
      "name": "geoReports",
      "outputs": [
        {
          "internalType": "uint256",
          "name": "latitude",
          "type": "uint256"
        },
        {
          "internalType": "uint256",
          "name": "longitude",
          "type": "uint256"
        },
        {
          "internalType": "uint256",
          "name": "startTime",
          "type": "uint256"
        },
        {
          "internalType": "uint256",
          "name": "endTime",
          "type": "uint256"
        }
      ],
      "stateMutability": "view",
      "type": "function"
    },
    {
      "inputs": [
        {
          "internalType": "bytes32",
          "name": "geoReportId",
          "type": "bytes32"
        },
        {
          "internalType": "bytes32[]",
          "name": "beacons",
          "type": "bytes32[]"
        },
        {
          "internalType": "uint256",
          "name": "latitude",
          "type": "uint256"
        },
        {
          "internalType": "uint256",
          "name": "longitude",
          "type": "uint256"
        },
        {
          "internalType": "uint256",
          "name": "startTime",
          "type": "uint256"
        },
        {
          "internalType": "uint256",
          "name": "endTime",
          "type": "uint256"
        }
      ],
      "name": "addGeoReport",
      "outputs": [],
      "stateMutability": "nonpayable",
      "type": "function"
    },
    {
      "inputs": [
        {
          "internalType": "bytes32",
          "name": "geoReportId",
          "type": "bytes32"
        },
        {
          "internalType": "bytes32",
          "name": "beacon",
          "type": "bytes32"
        },
        {
          "internalType": "uint256",
          "name": "latitude",
          "type": "uint256"
        },
        {
          "internalType": "uint256",
          "name": "longitude",
          "type": "uint256"
        },
        {
          "internalType": "uint256",
          "name": "startTime",
          "type": "uint256"
        },
        {
          "internalType": "uint256",
          "name": "endTime",
          "type": "uint256"
        }
      ],
      "name": "verifyBeacon",
      "outputs": [
        {
          "internalType": "bool",
          "name": "",
          "type": "bool"
        }
      ],
      "stateMutability": "view",
      "type": "function"
    }
  ],
  "bytecode": "0x608060405234801561000f575f80fd5b506107c68061001d5f395ff3fe608060405234801561000f575f80fd5b506004361061003f575f3560e01c80635187dc7014610043578063634ac9fc14610076578063ab019b96146100a6575b5f80fd5b61005d6004803603810190610058919061038e565b6100c2565b60405161006d94939291906103d1565b60405180910390f35b610090600480360381019061008b919061043e565b6100ee565b60405161009d91906104e1565b60405180910390f35b6100c060048036038101906100bb919061064a565b61022d565b005b5f602052805f5260405f205f915090508060010154908060020154908060030154908060040154905084565b5f805f808981526020019081526020015f206040518060a00160405290815f820180548060200260200160405190810160405280929190818152602001828054801561015757602002820191905f5260205f20905b815481526020019060010190808311610143575b5050505050815260200160018201548152602001600282015481526020016003820154815260200160048201548152505090508581602001511415806101a1575084816040015114155b806101b0575083816060015114155b806101bf575082816080015114155b156101cd575f915050610223565b5f5b815f01515181101561021d5787825f015182815181106101f2576101f16106ef565b5b60200260200101510361020a57600192505050610223565b808061021590610749565b9150506101cf565b505f9150505b9695505050505050565b5f6040518060a00160405280878152602001868152602001858152602001848152602001838152509050805f808981526020019081526020015f205f820151815f0190805190602001906102829291906102e4565b5060208201518160010155604082015181600201556060820151816003015560808201518160040155905050867fe85dc6fcce1cab609bb8f783383acd25ee9797569404df84e67b5034265a768360405160405180910390a250505050505050565b828054828255905f5260205f2090810192821561031e579160200282015b8281111561031d578251825591602001919060010190610302565b5b50905061032b919061032f565b5090565b5b80821115610346575f815f905550600101610330565b5090565b5f604051905090565b5f80fd5b5f80fd5b5f819050919050565b61036d8161035b565b8114610377575f80fd5b50565b5f8135905061038881610364565b92915050565b5f602082840312156103a3576103a2610353565b5b5f6103b08482850161037a565b91505092915050565b5f819050919050565b6103cb816103b9565b82525050565b5f6080820190506103e45f8301876103c2565b6103f160208301866103c2565b6103fe60408301856103c2565b61040b60608301846103c2565b95945050505050565b61041d816103b9565b8114610427575f80fd5b50565b5f8135905061043881610414565b92915050565b5f805f805f8060c0878903121561045857610457610353565b5b5f61046589828a0161037a565b965050602061047689828a0161037a565b955050604061048789828a0161042a565b945050606061049889828a0161042a565b93505060806104a989828a0161042a565b92505060a06104ba89828a0161042a565b9150509295509295509295565b5f8115159050919050565b6104db816104c7565b82525050565b5f6020820190506104f45f8301846104d2565b92915050565b5f80fd5b5f601f19601f8301169050919050565b7f4e487b71000000000000000000000000000000000000000000000000000000005f52604160045260245ffd5b610544826104fe565b810181811067ffffffffffffffff821117156105635761056261050e565b5b80604052505050565b5f61057561034a565b9050610581828261053b565b919050565b5f67ffffffffffffffff8211156105a05761059f61050e565b5b602082029050602081019050919050565b5f80fd5b5f6105c76105c284610586565b61056c565b905080838252602082019050602084028301858111156105ea576105e96105b1565b5b835b8181101561061357806105ff888261037a565b8452602084019350506020810190506105ec565b5050509392505050565b5f82601f830112610631576106306104fa565b5b81356106418482602086016105b5565b91505092915050565b5f805f805f8060c0878903121561066457610663610353565b5b5f61067189828a0161037a565b965050602087013567ffffffffffffffff81111561069257610691610357565b5b61069e89828a0161061d565b95505060406106af89828a0161042a565b94505060606106c089828a0161042a565b93505060806106d189828a0161042a565b92505060a06106e289828a0161042a565b9150509295509295509295565b7f4e487b71000000000000000000000000000000000000000000000000000000005f52603260045260245ffd5b7f4e487b71000000000000000000000000000000000000000000000000000000005f52601160045260245ffd5b5f610753826103b9565b91507fffffffffffffffffffffffffffffffffffffffffffffffffffffffffffffffff82036107855761078461071c565b5b60018201905091905056fea2646970667358221220528b583d0bd17b2e7f5c21ff9a0523298a6b05d2a56d811d13f325e97e69ba8e64736f6c63430008150033",
  "immutableReferences": {},
  "source": "pragma solidity ^0.8.0;\n\ncontract GeoReport {\n    // Store the georeport data received from the off-chain component\n    struct GeoReportData {\n        bytes32[] beacons;\n        uint256 latitude;\n        uint256 longitude;\n        uint256 startTime;\n        uint256 endTime;\n    }\n\n    // Mapping from a unique identifier to the GeoReportData\n    mapping(bytes32 => GeoReportData) public geoReports;\n\n    // Event emitted when a new georeport is added\n    event GeoReportAdded(bytes32 indexed geoReportId);\n\n    // Function to add a new georeport\n    function addGeoReport(\n        bytes32 geoReportId,\n        bytes32[] memory beacons,\n        uint256 latitude,\n        uint256 longitude,\n        uint256 startTime,\n        uint256 endTime\n    ) public {\n        GeoReportData memory newGeoReport = GeoReportData({\n            beacons: beacons,\n            latitude: latitude,\n            longitude: longitude,\n            startTime: startTime,\n            endTime: endTime\n        });\n        geoReports[geoReportId] = newGeoReport;\n        emit GeoReportAdded(geoReportId);\n    }\n\n    // Function to verify if a specific beacon is present for a specific time window and GPS location\n    function verifyBeacon(\n        bytes32 geoReportId,\n        bytes32 beacon,\n        uint256 latitude,\n        uint256 longitude,\n        uint256 startTime,\n        uint256 endTime\n    ) public view returns (bool) {\n        GeoReportData memory geoReport = geoReports[geoReportId];\n\n        // Check if the provided latitude, longitude, startTime, and endTime match the geoReport\n        if (\n            geoReport.latitude != latitude ||\n            geoReport.longitude != longitude ||\n            geoReport.startTime != startTime ||\n            geoReport.endTime != endTime\n        ) {\n            return false;\n        }\n\n        // Check if the provided beacon is present in the geoReport\n        for (uint256 i = 0; i < geoReport.beacons.length; i++) {\n            if (geoReport.beacons[i] == beacon) {\n                return true;\n            }\n        }\n\n        return false;\n    }\n}\n\n",
  "sourcePath": "/home/christos/workspace/pikei/beenthere/POL/contracts/pol.sol",
  "compiler": {
    "name": "solc",
    "version": "0.8.21+commit.d9974bed.Emscripten.clang"
  },
  "schemaVersion": "3.4.15",
  "updatedAt": "2023-08-31T06:29:52.565Z",
  "devdoc": {
    "kind": "dev",
    "methods": {},
    "version": 1
  },
  "userdoc": {
    "kind": "user",
    "methods": {},
    "version": 1
  }
}